:20C0000010CE1FFFCE1BFF1A104F1F8BBDC1158EC144BDC1097ECB2D8EC26ABDC1097EC077
:20C02000408EC29BBDC1099652BDC0DF9653BDC0DF860DBDC135860ABDC1359E52160AED3F
:20C040004F9745BDC120813A26F9BDC0899742BDC0899740BDC08997419E40964581012741
:20C0600006860197459F52BDC0898101270FBDC089A78430010A42964226F320C6BDC12085
:20C08000BDC120BDC1207EC0210F57BDC120BDC0B025F84848484884F097570F58BDC12030
:20C0A000BDC0B025F8840F975896589A57974439813025278139220580301CFE39814125F9
:20C0C0000B8146220780418B0A1CFE398161250B8166220780618B0A1CFE394F1A013934FA
:20C0E000161F8984F0444444449757BDC0FA1F98840F9758BDC0FA35163934128EC2AE30F1
:20C1000086A684BDC135351239A6842707BDC135300120F5398603B7A0008615B7A00039A7
:20C12000B6A000850127F9B6A00181612506817A220284DF393402B6A000850227F935027A
:20C14000B7A001390C0753757065724D6F6E20363830392042792044722E2050656B657215
:20C1600020323032350A0D56657273696F6E3A206D6F64756C61722D31302C2040202443EA
:20C180003030300A0D0A0D0A0D204C4F414420202D20696E74656C20486578206C6F6164DC
:20C1A00065720A0D0A0D205341564520202D20696E74656C2048657820536176650A0D0A6D
:20C1C0000D2044554D5020202D2064756D70206D656D6F727920636F6E74656E740A0D0AC4
:20C1E0000D204D454D2020202D204D656D6F72792020656469740A0D0A0D20434F5059207E
:20C20000202D20426C6F636B20636F707920696E206D656D6F72790A0D0A0D2046494C4CC6
:20C2200020202D2046696C6C20696E206D656D6F72790A0D0A0D2052554E2020202D2052F8
:20C24000756E20612070726F6772616D0A0D0A0D2048454C5020202D2048656C700A0D0AB4
:20C260000D52656164792E0A0D000A0D53656E6420694865782066696C652066726F6D2074
:20C28000796F7572207465726D696E616C210A0D4C6F6164696E672E2E2E000A0D53746194
:20C2A000727420416464726573733A202400303132333435363738394142434445460C2066
:20C2C00020204C4F41442020203A53746172747320696E74656C20486578206C6F6164653D
:20C2E000720A0D0A0D2020205341564520616464722061646472206C656E6768743A20207D
:20C300002020696E74656C2048657820736176650A0D0A0D20202044554D5020616464722E
:20C320002061646472203A2064756D7073206265747765656E2074776F2061647265737379
:20C340006573200A0D0A0D2020204D454D20616464722061612062622063632064642E2ECD
:20C360002E203C43523E200A0D202020202020206564697473207370656369666965642044
:20C380006D656D6F727920616464726573732D65730A0D0A0D202020434F505920736F75B9
:20C3A0007263652064657374206C656E6768740A0D0A0D20202046494C4C20616464722041
:20C3C000616464722076616C0A0D0A0D20202052554E2061646472203A2052756E7320706F
:20C3E000726F6772616D20617420676976656E20616464726573730A0D0A0D4E6F74653A83
:20C4000020696E206D6F6E69746F7220657665727920616464726573732061726561206370
:20C42000616E206265207573656420200A0D20202020202061732041204141204141412084
:20C440006F7220414141410A0D0A0D20202055736566756C20537562726F7574696E657312
:20C46000202863616C6C2077697468206A7372204558434550542070726F6D7074293A0A75
:20C480000D0A0D002020202020474554434820203A20240020202020204F5554434820204C
:20C4A0003A20240020202020205052494E5420583A20240020202020205052494E5420414D
:20C4C0003A202400202020202044454C415920203A202400202020202020002020202020B1
:20C4E00050524F4D5420203A20240020202020204845584F5554203A202400533A3E003FC7
:20C500000044554D50004D454D4F5259004D454D004C4F41440048454C500052554E00539C
:20C5200041564500434F50590046494C4C00860DBDC135860ABDC135398620BDC135390F5A
:20C5400060BDC120810D273E8108271C817F2718812025EDD660C17F24258E00803085A703
:20C5600084BDC1350C6020D9D66027D50A608608BDC1358620BDC1358608BDC13520C28640
:20C5800007BDC13520BBBDC52ED6608E008030856F84390F6139D661D16024088E008030B6
:20C5A00085A684394F39D661D16024020C6139BDC596271281202709812C2705812427010F
:20C5C00039BDC5A620E9393436D6618E00803085A6A4270AA18426263001312120F2A684A9
:20C5E00081412506815A2202201434108E00809F4435101F109344D76135361CFE3935363A
:20C600001A0139BDC5AFBDC5964D277E108EC501BDC5C725058602976439108EC506BDC50D
:20C62000C725058603976439108EC50DBDC5C725058603976439108EC511BDC5C72505863F
:20C6400004976439108EC516BDC5C725058605976439108EC51BBDC5C7250586019764394B
:20C66000108EC51FBDC5C725058606976439108EC524BDC5C725058607976439108EC529BE
:20C68000BDC5C7250586089764390F64390F570F580F69BDC596274B34028130250C813918
:20C6A0002311814125048146230D35029669273A1CFE398030200480418B0A97623502BD63
:20C6C000C135BDC5A60C69C604085809575A26F996589B62975824020C579669810425B305
:20C6E0001CFE39966927031CFE391A01399664102700F38104102700EC8105102700E68127
:20C70000012613BDC5AFBDC68D102500D996579765965897663981022625BDC5AFBDC68D74
:20C72000102500C29657976596589766BDC5AFBDC68D102500B09657976796589768398176
:20C74000032613BDC5AFBDC68D1025009996579765965897663981062623BDC5AFBDC68D70
:20C76000102500829657976596589766BDC5AFBDC68D257296579767965897683981072697
:20C7800031BDC5AFBDC68D255D9657976596589766BDC5AFBDC68D254D96579767965897AE
:20C7A00068BDC5AFBDC68D253D9657976E9658976F3981082630BDC5AFBDC68D25289657F5
:20C7C000976596589766BDC5AFBDC68D25189657976796589768BDC5AFBDC68D25080F6E31
:20C7E0009658976F39391A0139BDC5AFBDC596273A3402BDC0B025313502BDC135BDC0B005
:20C800004848484884F09744BDC5A6BDC596271B3402BDC0B025123502BDC135BDC0B084F2
:20C820000F9A44BDC5A61CFE3935021A01399E65BDC52E6E84966597409666974196679726
:20C8400052966897539E40964091522262250696419153225ABDC52E9640BDC0DF9641BDAB
:20C86000C0DF863ABDC1358620BDC13586109745964091522226250696419153221EA6848A
:20C88000BDC0DF8620BDC135300196418B019741260696408B0197400A4526D4BDC52E9683
:20C8A000409152220A25B196419153220220A9399665974096669741BDC52E9640BDC0DFEA
:20C8C0009641BDC0DF8620BDC135BDC5AFBDC596272ABDC7E925259744964097469641977F
:20C8E000479644A79F004696418B019741260696408B0197408620BDC13520CEBDC52E39BB
:20C90000BDC52E16F7128EC2BEBDC1098EC484BDC1098EC120BDCBB98EC4D4BDC1098EC4A7
:20C9200094BDC1098EC135BDCBB9BDC52E8EC4A4BDC1098ECBB9BDCBB98EC4D4BDC1098E5C
:20C94000C4B4BDC1098ECBB5BDCBB9BDC52E8EC4C4BDC1098ECBA4BDCBB98EC4D4BDC10951
:20C960008EC4DBBDC1098ECB2DBDCBB9BDC52E8EC4EBBDC1098EC0DFBDCBB939BDC52E96DB
:20C9800065974096669741966797529668975396539041975896529240975796588B019757
:20C9A0005824020C5796579A5810270080965726069658811023028610976D863ABDC13536
:20C9C0000F6C966D3402BDC0DF35029B6C976C96403402BDC0DF35029B6C976C9641340250
:20C9E000BDC0DF35029B6C976C8600BDC0DF9E40D66DA6843402BDC0DF35029B6C976C306A
:20CA00000196418B019741240696408B0197405A26E0966C40BDC0DFBDC52E964091521000
:20CA200025FF6C2208964191531023FF62863ABDC1358600BDC0DF8600BDC0DF8600BDC0B3
:20CA4000DF8601BDC0DF86FFBDC0DFBDC52E39BDC52E9E65DE67966E9757966F975896577F
:20CA60009A581027008A96669B5897419665995797409667916525182206966891662510F8
:20CA8000966791402524220896689141251C200096579A58275AA684A7C43001334196589C
:20CAA0008001975824EA0A5720E696418001974124069640800197409E4096689B5897475C
:20CAC0009667995797469647800197472406964680019746DE4696579A582714A684A7C419
:20CAE000301F335F96588001975824EA0A5720E639BDC52E9665974096669741966797520D
:20CB000096689753966F1F899E40964091522508221A964191532214E784300196418B0190
:20CB2000974124E696408B01974020DE39860DBDC135860ABDC1358EC4FBBDC109BDC53F85
:20CB4000BDC593BDC60396642752BDC6ED254D96648101271E8102271F81032720810427E4
:20CB6000228105272381062724810727258108272620BABDC82E20B5BDC83520B0BDC8B026
:20CB800016FFAABDC90020A5BDC90620A0BDC97C209BBDCA4F2096BDCAF120918EC4FFBDBF
:20CBA000C109208934168E05DCC6005A26FD301F26F7351639BDC0DF3934161F10BDC0DFAC
:08CBC0001F98BDC0DF351639D6
:10FFF0000000000000000000000000000000C00041
:00000001FF
